:020000040800F2
:100000002811002045010008591F0008411300086D
:10001000551F00081D0A00080733000800000000F3
:100020000000000000000000000000002D2B000870
:10003000C10B000800000000A72400085D2C000888
:100040005F0100085F0100085F0100085F01000810
:100050005F0100085F0100085F0100085F01000800
:100060005F010008650C00085F0100085F010008DF
:100070005F0100085F0100085F0100085F010008E0
:100080005F0100085F0100085F0100085F010008D0
:100090005F0100085F0100085F0100085F010008C0
:1000A0005F0100085F0100085F0100085F010008B0
:1000B0005F0100085F0100085F0100085F010008A0
:1000C0005F0100085F0100085F0100085F01000890
:1000D0005F010008F53000085F0100085F010008BB
:1000E0005F0100085F0100085F0100085F01000870
:1000F0005F0100085F0100085F0100085F01000860
:100100005F0100085F0100085F0100085F0100084F
:100110005F0100085F0100085F0100085F0100083F
:100120005F0100085F0100085F0100085F0100082F
:10013000DFF80CD000F0F6FA00480047C1340008A0
:10014000281100200648804706480047FEE7FEE7E2
:10015000FEE7FEE7FEE7FEE7FEE7FEE7FEE7FEE777
:10016000F92C0008310100082DE9FE4F804681EA94
:100170000300C00F0C46009021F0004123F0004521
:10018000B8EB0200A94105D24046214690461C46E4
:100190000B46024623F00040104347D0270DC7F31B
:1001A0000A00C3F30A510290401A019040286BDA0A
:1001B000C3F3130040F4801B0098924620B1002343
:1001C000D2EB030A63EB0B0B01985946C0F14002D6
:1001D000504600F0A1F906460D4650465946019A90
:1001E00000F0A9F910EB08006141002487EA1152E0
:1001F00084EAE7731A4340D0009A62B3019A012A55
:100200004FEA075215DC001B61EB02014FF0004280
:1002100002EA0752CDE90042001C41F58011324646
:100220002B4600F0E0F903B0BDE8F08F40462146D0
:10023000F9E7001B61EB0201001C41F58013001877
:100240005B412018A2F5001747EB030140EAD57087
:10025000B6196D4111E06D084FEA360645EAC075E2
:100260004FEA0752001B61EB0201001C41F58011AF
:1002700049084FEA30000019514132462B4603B07D
:10028000BDE8F04F00F0A0B9009801224000002323
:10029000D0EB020263EBE073009821464FEAE07472
:1002A000B8EB000061EB0401E9E783F000435BE792
:1002B00081F0004158E72DE9FE4F81EA030404F084
:1002C000004421F0004100944FF0000B23F0004364
:1002D00050EA01045ED052EA03045BD0C3F30A542F
:1002E000C1F30A552C44A4F2F3340194A0FB025448
:1002F000C1F3130141F48011C3F3130343F48013DA
:1003000001FB024400FB034E840A970A44EA81542D
:1003100047EA8357A4FB076802958D0A05FB07850A
:100320004FEA932C04FB0C542705029D4FEA065814
:1003300047EA1637B5EB08056EEB070C870E920EF1
:1003400047EA811742EA8312A7FB0201B6EB0B01D1
:1003500064EB00042B0D43EA0C335E1844EB1C5095
:10036000DA465146E7FB0201C5F313044FEA0B33AB
:1003700043EA14534FEA0432019C43EA0603A4F112
:100380000C040294009CCDE900B400F02CF903B0F9
:10039000BDE8F08F00200146F9E72DE9F04D81EA34
:1003A000030404F0004B21F0004514464FF0000A0E
:1003B00023F0004150EA050220D054EA01021DD08A
:1003C000C5F30A570246C5F31303C1F31300C1F383
:1003D0000A5640F4801543F48013A7EB0608101B5F
:1003E000D64608F2FD3873EB050002D308F1010888
:1003F00001E092185B41B8F1000F03DA00200146DA
:10040000BDE8F08D00204FF48011064684460EE0D2
:10041000171B73EB050705D3121B63EB050306439C
:100420004CEA010C49084FEA300092185B4150EA4F
:100430000107EDD152EA030012D082EA040083EAF8
:100440000501084305D0101BAB4106D20122002351
:1004500006E000224FF0004302E06FF0010253106B
:100460001AEB06004CEB085110EB0A0041EB0B01B4
:10047000BDE8F04D00F0A8B80EB540F2334102914E
:100480000021CDE900110A460B4600F0ACF803B09C
:1004900000BD20F00040C10DC0F3160040F4000084
:1004A0007F2901DA00207047962903DCC1F196010B
:1004B000C840704796398840704700F0004230F0DD
:1004C00000400AD0C10D01F56071C0F3160042EA88
:1004D0000151C20840071143704700200146704790
:1004E00001F0004330B421F0004150EA010206D08F
:1004F0000A0DA2F56072C1F31301002A02DC30BCC0
:1005000000207047440F44EAC104C100E01830BC29
:1005100000EBC25000F021B8202A04DB203A00FA98
:1005200002F1002070479140C2F1200320FA03F34A
:10053000194390407047202A06DBCB17203A41FA36
:1005400002F043EAE07306E041FA02F3D040C2F160
:10055000200291400843194670470029A8BF704700
:10056000401C490008BF20F00100704710B4B0FAE9
:1005700080FC00FA0CF050EA010404BF10BC704784
:1005800049B1CCF1200421FA04F411FA0CF118BF9E
:10059000012121430843A3EB0C01CB1D4FEA00616D
:1005A0004FEA102042BF002010BC704700EBC35040
:1005B00010440029A4BF10BC7047401C490008BF6C
:1005C00020F0010010BC704710B5141E73F1000438
:1005D00008DA401C41F1000192185B411A4301D135
:1005E00020F0010010BD2DE9F04D92469B4611B15F
:1005F000B1FA81F202E0B0FA80F220329046FFF7C1
:100600008BFF04460F4640EA0A0041EA0B015346BD
:100610005A46084313D0114653EA010019D0C8F1D5
:100620004002504600F090F805460E4650465946A6
:100630004246FFF771FF084305D0012004E0204641
:100640003946BDE8F08D0020054346EAE0762C43AC
:1006500037430A986305E40AA0EB08000022FD0A6C
:1006600044EA47540A3002D500200146E9E7010573
:1006700010196941DDE9084500196941BDE8F04DEF
:10068000A2E72DE9F04D00231A461B1A8A4103DB2D
:1006900000200146BDE8F08DC1F30A52C1F31301F9
:1006A00041F480154FF0000BD10702D100186D41C5
:1006B000521E0027044640F2FF11384601EB620A41
:1006C0003E468046024600204FF4801100F03CF880
:1006D000C2197141BB1846EB0100B4EB030C75EB7A
:1006E000000C04D3E41A65EB000517460E462419E6
:1006F00008F101006D4180463428E3DDF91946EB2D
:100700000600091BA84103D24FF0FF32134601E057
:10071000002213461BEB070046EB0A51BDE8F04DE3
:10072000FFF752BF064C074D06E0E06840F00103BA
:1007300094E8070098471034AC42F6D3FFF7FCFC6E
:100740001872000838720008202A04DB203A21FAC7
:1007500002F00021704721FA02F3D040C2F12002DA
:10076000914008431946704721B1826842F0010266
:10077000826003E0826822F001028260704721B14A
:10078000826842F48072826003E0826822F48072A0
:1007900082607047014600208A6802F004020AB1B4
:1007A000012000E000207047014600208A6802F026
:1007B00008020AB1012000E00020704730B502466F
:1007C0000020002350680F4C20400D790C6844EA4B
:1007D00005242043506090680B4C2040D1E902541E
:1007E0002C434D7944EA450420439060D06A20F4BC
:1007F00070000C7C641EE4B2234340EA0350D062D4
:1008000030BD0000FFFEF0FFFDF7F1FFF0B504463C
:100810000D4600200021092D11DDE068A5F10A0632
:1008200006EB4607072606FA07F18843A5F10A06F4
:1008300006EB460603FA06F10843E0600CE0206987
:1008400005EB4507072606FA07F1884305EB450641
:1008500003FA06F108432061072A0FDA606B561E7F
:1008600006EB86071F2606FA07F18843561E06EB9D
:10087000860605FA06F10843606322E00D2A0FDAC6
:10088000206BD61F06EB86071F2606FA07F1884362
:10089000D61F06EB860605FA06F10843206310E032
:1008A000E06AA2F10D0606EB86071F2606FA07F19D
:1008B0008843A2F10D0606EB860605FA06F1084309
:1008C000E062F0BD816841F008018160704721B1AC
:1008D000826842F4A002826003E0826822F4A002EF
:1008E00082607047816841F00401816070470000B8
:1008F00008B50121102001F003FE0320ADF800002F
:1009000000208DF803006946014800F045FC08BD51
:100910000010014010B5FFF7EBFF00F001F810BD2B
:1009200000B591B00121084601F0CAFD012148023D
:1009300001F0E6FD364800F07FF83648069036486C
:100940000790002008900220099000200A90802043
:100950000B9040000C9080000D9020200E90000223
:100960000F900020109006A9294800F00BF90121F2
:10097000274800F055F80020019001208DF808006C
:100980008DF809004FF460200390002004900220AD
:100990008DF8140001A91F484C38FFF70FFF4FF4E2
:1009A000404001F081FD052301220A2119484C38FD
:1009B000FFF72CFF052302220B2116484C38FFF7C6
:1009C00025FF012113484C38FFF7D9FE01211148BA
:1009D0004C38FFF7C9FE0F484C38FFF773FF00BFD4
:1009E0000C484C38FFF7E0FE0028F9D109484C3894
:1009F000FFF778FF00BF07484C38FFF7CBFE002811
:100A0000F9D1012103484C38FFF761FF11B000BD57
:100A1000080002404C2401401001002000BFFEE706
:100A200021B1026842F00102026004E002684FF660
:100A3000FE731A400260704701684FF6FE72114063
:100A400001600021016041608160C1604B498842C2
:100A500008D14A490839496841F00F01474A083A24
:100A600051608AE045491431884208D14349083928
:100A7000496841F0F001414A083A51607DE03F4940
:100A80002831884208D13D490839496841F47061EC
:100A90003A4A083A516070E038493C31884208D1FE
:100AA00036490839496841F47041344A083A51607E
:100AB00063E032495031884208D1304908394968E9
:100AC00041F470212D4A083A516056E02B496431B7
:100AD000884208D129490839496841F47001274AF8
:100AE000083A516049E025497831884208D12349C4
:100AF0000839496841F07061204A083A51603CE089
:100B00001F49884206D1011F096841F00F01021FE9
:100B1000116032E01A491431884208D11849091F7E
:100B2000096841F0F001164A121F116025E01449CE
:100B30002831884208D11249091F096841F47061BF
:100B40000F4A121F116018E00D493C31884208D14C
:100B50000B49091F096841F47041094A121F1160CD
:100B60000BE007495031884207D10549091F096840
:100B700041F47021024A121F1160704708000240C0
:100B80000804024010B50022026847F6F0739A4349
:100B90000C6A8B6823430C6923434C6923438C699B
:100BA0002343CC6923434C6A23438C6A23431A436F
:100BB0000260CB6843600B6883604B68C36010BD04
:100BC000704701B502E00098401E00900098002890
:100BD000F9D108BD2DE9F14F86B00698FFF74CFC1E
:100BE000064632460B464FF033301749FFF7D5FB28
:100BF0000446FFF775FC05900598FFF75EFC8046FC
:100C0000124A134BFFF7B0FACDE9000102F0DCFC09
:100C1000104A114BCDE90201FFF7A6FA0646002261
:100C20000E4BFFF748FB04464FF066320C4BFFF7C4
:100C3000B4FB8246FFF754FC04900498FFF729FCAC
:100C400080B207B0BDE8F08F33339E4048E17A149C
:100C5000AEC74340295C8FC2F52819C00000A040F0
:100C600066660A4010B5082000F038F800B3114855
:100C7000007878B910201049486108200F490860B1
:100C800001200C49087008200C49086010200A490E
:100C900008610AE007480078012806D108200749C2
:100CA000091D0860022003490870082000F008F8B8
:100CB00010BD0000DD0000200010014010140140B4
:100CC00001490860704700001404014002490968A6
:100CD0000143014A116070471004014001460020A1
:100CE0000022074B1B6803EA0102054B14331B6803
:100CF0000B4013B10AB1012000E000207047000052
:100D000000040140002123498279002A3AD00A4692
:100D1000126803689A430B461A600A1D126803683A
:100D20009A430B1D1A60027911440A6803681A433A
:100D30000A60184A0832126803689A43154B083350
:100D40001A601A1D126803689A43124B0C331A601A
:100D50004279102A0ED11A1F126803681A430D4BEC
:100D600008331A601A1D126803681A43094B0C33C2
:100D70001A600DE00749427911440A6803681A4372
:100D80000A6005E0027911440A6803689A430A6020
:100D9000704700000004014008B501213C2001F02B
:100DA000AFFB10208DF8030003208DF8020008200F
:100DB000ADF8000069461A4800F0EEF91020ADF8D1
:100DC00000006946174800F0E7F90420ADF800007C
:100DD0006946134800F0E0F92020ADF800006946AC
:100DE000104800F0D9F90820ADF8000069460E4817
:100DF00000F0D2F94FF47F40ADF8000004208DF8E8
:100E0000030003208DF802006946084800F0C4F989
:100E1000082003491431086003491031086008BDF7
:100E2000000801400010014000140140000C014086
:100E300051B18200A2F1C042126842F00103820067
:100E4000A2F1C042136009E08200A2F1C042126820
:100E5000034B1A408300A3F1C0431A60704700009F
:100E6000FEFF0F00D0E901121143C268114302696D
:100E700011434269114382691143C2691143026AF5
:100E80001143426A1143826A1143C26A1143026BE1
:100E9000114302689200A2F1C042116081680829E2
:100EA0000BD101688900A1F1C041096841F04002FD
:100EB00001688900A1F1C0410A60416B0968426B79
:100EC000526841EA0211426B926841EA0221426B88
:100ED000928941EA0241426B128A41EA0251426B15
:100EE000127D41EA0261426B926911430268521C11
:100EF0009200A2F1C0421160C16AB1F5804F1BD1CE
:100F0000816B0968826B526841EA0211826B9268B8
:100F100041EA0221826B128A41EA0251826B127D00
:100F200041EA0261826B9269114302689200A2F168
:100F3000C042C2F8041107E06FF0704201688900F6
:100F4000A1F1C041C1F80421704700001FB504465B
:100F50006020ADF800000120ADF802000020ADF8DF
:100F60000800ADF806406946034801F001FF08217A
:100F7000014801F049FF1FBD000400401FB50446B1
:100F80006020ADF800000120ADF802000020ADF8AF
:100F90000800ADF806406946034801F03FFF08210C
:100FA000014801F08DFF1FBD000400401FB504463D
:100FB0006020ADF800000120ADF802000020ADF87F
:100FC0000800ADF806406946034801F087FF082194
:100FD000014801F0D3FF1FBD000400401FB50446C7
:100FE0006020ADF800000120ADF802000020ADF84F
:100FF0000800ADF806406946034801F0C9FF082122
:10100000014802F003F81FBD0004004008B50121AB
:10101000042001F075FA4020ADF8000018208DF88A
:10102000030003208DF8020069461B4800F0B4F865
:101030000121042001F064FA8020ADF8000018209E
:101040008DF8030003208DF802006946124800F075
:10105000A3F80121082001F053FA0120ADF80000A7
:1010600018208DF8030003208DF8020069460B4814
:1010700000F092F80121082001F042FA0220ADF8B8
:10108000000018208DF8030003208DF80200694647
:10109000024800F081F808BD00080140000C014042
:1010A00010B5FFF7B3FF00F001F810BDF0B587B041
:1010B0000121022001F014FA40F2CF70ADF81400C3
:1010C00040F2CF20ADF810000020ADF81600ADF8CA
:1010D00012008DF8180004A91E4801F0A5FF9624FF
:1010E0009625962678276020ADF800000120ADF8FF
:1010F00002000020ADF80800ADF80640694615482A
:1011000001F036FE0821134801F07EFEADF80650CE
:101110006946104801F082FE08210E4801F0D0FE19
:10112000ADF8066069460B4801F0D8FE0821094871
:1011300001F024FFADF806706946064801F028FF6B
:101140000821044801F062FF0121024801F004FE79
:1011500007B0F0BD0004004030B500228B071C0F23
:101160000F2303FA04F20B4B8C1053F824309343F3
:10117000084C8D1044F8253023468C1053F8243049
:101180008C07240F00FA04F42343024C8D1044F81A
:10119000253030BD080001402DE9F0410246002510
:1011A0000026002000230024002791F803C00CF043
:1011B0000F0591F803C00CF0100CBCF1000F03D028
:1011C00091F802C04CEA050591F800C0BCF1000F8F
:1011D00031D0146800202BE04FF0010C0CFA00F322
:1011E000B1F800C00CEA03069E4220D183004FF004
:1011F0000F0C0CFA03F7BC4305FA03FC4CEA040499
:1012000091F803C0BCF1280F06D14FF0010C0CFA85
:1012100000FCC2F814C00AE091F803C0BCF1480F0A
:1012200005D14FF0010C0CFA00FCC2F810C0401CB4
:101230000828D1D31460B1F800C0BCF1FF0F34DD31
:10124000546800202EE000F1080C4FF0010808FA65
:101250000CF3B1F800C00CEA03069E4221D18300D2
:101260004FF00F0C0CFA03F7BC4305FA03FC4CEAF1
:10127000040491F803C0BCF1280F05D100F1080C5B
:1012800008FA0CF8C2F8148091F803C0BCF1480FBA
:1012900007D100F1080C4FF0010808FA0CF8C2F869
:1012A0001080401C0828CED35460BDE8F08102466F
:1012B000002093680B400BB1012000E00020704734
:1012C000416170470161704710B5B420FFF76EFEB1
:1012D000B420FFF73BFEB420FFF750FE0F48FFF7A6
:1012E00070FC3C20FFF762FE3C20FFF747FE3C20ED
:1012F000FFF72CFE0A48FFF764FC7820FFF76EFE2C
:101300000748FFF75EFCB420FFF750FEB420FFF75C
:1013100035FEB420FFF71AFE10BD0000FFFF0A00E3
:10132000FFFF3F0010B5B420FFF710FEB420FFF719
:1013300025FEB420FFF73AFE7820FFF74FFE10BDE0
:1013400000BFFEE710B504462CB14FF480510548AC
:10135000FFF7B6FF04E04FF480510248FFF7B2FFF9
:1013600010BD0000001401402DE9F04106460F4673
:1013700014461D462B4622463946304600F010FAE8
:1013800004FB05F00249098800F0BDF8BDE8F081D2
:10139000EE00002001B502E00098401E0090009889
:1013A0000028F9D108BD00002DE9F04F804689469C
:1013B0001646A6F120001FFA80FA1E49096889889E
:1013C0001C4A1268D28801FB02F0C11700EB517170
:1013D000C1F3C7071748006800680AFB070B1548E8
:1013E0000068C3881348006882884946404600F078
:1013F000D7F92C2000F02CFB002416E0002510E08B
:101400001BF8040080212941084020B10A480088C7
:1014100000F022FB03E00948008800F01DFB681C77
:10142000C5B2082DECDB601CC4B2BC42E6DBBDE8F3
:10143000F08F0000E8000020EC000020EE0000200B
:1014400070B504460D46002624E03046134909686D
:101450008988084412490988884205DD00260F481A
:101460000068C088204484B220460C490968C988B5
:1014700008440C490988884201DD002600242A78A6
:1014800021463046FFF790FF6D1C044800688088B5
:10149000304486B228780028D7D170BDE8000020FB
:1014A000E0000020E200002000B597B00121080212
:1014B00001F006F8012001900420039080060790B7
:1014C0000020029004900590069008900990082052
:1014D0000A9010200B9000200C900E900F9010900E
:1014E0004FF480501190002012901390149001A896
:1014F0001590169008A8FFF7B5FC01210020FFF712
:1015000097FC17B000BD10B502460B4600242C20F6
:1015100000F09EFA00BF03E0184600F09DFA641C3C
:101520009442F9D310BD000008B50121602000F0FD
:10153000E7FF03208DF8020018208DF803004FF418
:101540008040ADF8000069465B48FFF725FE4FF488
:101550000040ADF8000069465748FFF71DFE012026
:10156000ADF8000069465448FFF716FE0220ADF8BA
:10157000000069465048FFF70FFE8020ADF80000DC
:1015800069464E48FFF708FE4FF48070ADF8000042
:1015900069464A48FFF700FE4FF40070ADF80000BE
:1015A00069464648FFF7F8FD4FF48060ADF800004B
:1015B00069464248FFF7F0FD4FF40060ADF80000C7
:1015C00069463E48FFF7E8FD4FF48050ADF8000053
:1015D00069463A48FFF7E0FD4FF40050ADF80000CF
:1015E00069463648FFF7D8FD4FF48040ADF800005B
:1015F00069463248FFF7D0FD4FF40040ADF80000D7
:1016000069462E48FFF7C8FD4FF48070ADF8000022
:1016100069462948FFF7C0FD4FF40070ADF800009F
:1016200069462548FFF7B8FD4FF48060ADF800002B
:1016300069462148FFF7B0FD03208DF8020018200D
:101640008DF803001020ADF8000069461A48FFF736
:10165000A3FD2020ADF8000069461748FFF79CFD68
:101660008020ADF8000069461348FFF795FD4FF460
:101670000060ADF8000069460F48FFF78DFD1020AF
:101680008DF8030003208DF802000220ADF8000061
:1016900069460A48FFF780FD10208DF803000320FB
:1016A0008DF802004FF48050ADF800006946024802
:1016B000FFF772FD08BD0000001401400018014052
:1016C00000B50246072A00DD00BD2848027010461A
:1016D00002EBD0714910A2EB410139B9F020244945
:1016E00008804FF4A0702349088006E04FF4A070F2
:1016F0001F490880F0201F490880362000F0A8F913
:10170000082141EA421000F0A7F92A2000F0A0F9D0
:10171000002000F0A1F9002000F09EF9144909888A
:10172000491EC1F3072000F097F911490978491EB5
:10173000C8B200F091F92B2000F08AF9002000F0E7
:101740008BF9002000F088F90A490988491EC1F385
:10175000072000F081F907490978491EC8B200F056
:101760007BF92C2000F074F900BFADE7E400002005
:10177000E0000020E200002010B5FFF7D5FEFFF7E3
:1017800093FE0120FFF7DEFD00F04EF900F034F883
:1017900002480078FFF794FF10BD0000E40000202D
:1017A00030B504460D462A2000F052F9201200F010
:1017B00053F9E0B200F050F9A118491EC1F30F200F
:1017C00000F04AF9A118491EC8B200F045F92B20D3
:1017D00000F03EF9281200F03FF9E8B200F03CF9C1
:1017E000E918491EC1F30F2000F036F9E918491E27
:1017F000C8B200F031F930BD10B5CF2000F028F9A3
:10180000002000F029F9812000F026F9302000F0B6
:1018100023F9ED2000F01CF9642000F01DF90320ED
:1018200000F01AF9122000F017F9812000F014F9E5
:10183000E82000F00DF9852000F00EF9102000F0EE
:101840000BF9782000F008F9CB2000F001F93920DD
:1018500000F002F92C2000F0FFF8002000F0FCF866
:10186000342000F0F9F8022000F0F6F8F72000F03C
:10187000EFF8202000F0F0F8EA2000F0E9F800206E
:1018800000F0EAF8002000F0E7F8B12000F0E0F8FE
:10189000002000F0E1F81B2000F0DEF8B62000F098
:1018A000D7F80A2000F0D8F8A22000F0D5F8C02020
:1018B00000F0CEF8352000F0CFF8C12000F0C8F8D5
:1018C000112000F0C9F8C52000F0C2F8452000F052
:1018D000C3F8452000F0C0F8C72000F0B9F8A220F6
:1018E00000F0BAF8F22000F0B3F8002000F0B4F8ED
:1018F000262000F0ADF8012000F0AEF8E02000F066
:10190000A7F80F2000F0A8F8262000F0A5F8242062
:1019100000F0A2F80B2000F09FF80E2000F09CF8D9
:10192000092000F099F8542000F096F8A82000F063
:1019300093F8462000F090F80C2000F08DF8172066
:1019400000F08AF8092000F087F80F2000F084F8F2
:10195000072000F081F8002000F07EF8E12000F080
:1019600077F8002000F078F8192000F075F81B20B7
:1019700000F072F8042000F06FF8102000F06CF80E
:10198000072000F069F82A2000F066F8472000F0F0
:1019900063F8392000F060F8032000F05DF80620BD
:1019A00000F05AF8062000F057F8302000F054F804
:1019B000382000F051F80F2000F04EF8362000F0EB
:1019C00047F8C82000F048F82A2000F041F800202D
:1019D00000F042F8002000F03FF8002000F03CF852
:1019E000EF2000F039F82B2000F032F8002000F052
:1019F00033F8002000F030F8012000F02DF83F20EF
:101A000000F02AF83A2000F023F8552000F024F8DE
:101A1000112000F01DF80348FFF7BCFC292000F05E
:101A200017F810BDFCBF020010B502210748FFF7F0
:101A300047FC40F6FF20FFF7ADFC02210348FFF70B
:101A400041FC40F6FF20FFF7A5FC10BD0018014047
:101A50004FF0C0410880704701490880704700007E
:101A6000000002602DE9FC5F82468B4614461F464B
:101A70004FF000093B46224659465046FFF790FE7C
:101A80002C20FFF7E5FF00253CE04FF0000835E093
:101A900000BF00262020294948612948006800F439
:101AA0007F4620200861486125480068C0F3072070
:101AB00006432020086100BF06F478408012ADF88C
:101AC0000000C6F34510ADF80200F006800EADF838
:101AD0000400232D0BDD7D2D09DA684601F06AFC38
:101AE00028B14FF4784609F101001FFA80F9304619
:101AF000FFF7B2FF08F101001FFA80F8A045C7DB2D
:101B0000681C85B2BD42C0DB0D98814502DC002017
:101B1000BDE8FC9F04EBD47149101439A94201DDE2
:101B20000220F5E704EBD471142202EB6101A94213
:101B300001DA0320ECE70120EAE700000010014091
:101B4000080C01402DE9FF4FD3B0834615469A4655
:101B50004FF0000853462A4658465499FFF720FE96
:101B60002C20FFF775FF002404E0002001A9085590
:101B7000601C84B2AC42F8DB00243EE0002738E071
:101B800000BF00262020324948613248006800F436
:101B90007F462020086148612E480068C0F3072076
:101BA00006432020086100BF06F478408012ADF89B
:101BB0004401C6F34510ADF84601F006800EADF8BD
:101BC0004801232C10DD7D2C0EDA51A801F0F2FB28
:101BD00050B14FF4784608F101001FFA80F801A8CF
:101BE000C05D401C01A9C8553046FFF735FF781C81
:101BF00087B2AF42C4DB601C84B25445BEDBC14631
:101C000000240DE001A8005DA8EB00001FFA80F899
:101C100009EBD971B8EB610F00DA03E0601C84B204
:101C2000AC42EFDB00BF05EBD57149101439A1427E
:101C300003DD022057B0BDE8F08F05EBD57114220B
:101C400002EB6101A14201DA0320F3E70120F1E791
:101C500000100140080C014008B50121142000F0DB
:101C60004FFC0120ADF8000004208DF80300694608
:101C70000748FFF791FA4FF40050ADF80000042038
:101C80008DF8030069460348FFF786FA08BD000097
:101C90000008014000100140014800687047000042
:101CA000E800002010B5FFF767FD0320FFF708FDEF
:101CB000084800F01FF800214FF4784000F010F8B9
:101CC000054803880548028800210846FFF74CFBB9
:101CD00010BD0000F0000020E2000020E000002025
:101CE000024A1080024A118070470000EC00002078
:101CF000EE0000200149086070470000E800002065
:101D000008B50121082000F0FBFB2020ADF8000001
:101D100010208DF8030003208DF8020069460F485B
:101D2000FFF73AFA0120ADF8000069460B48FFF7CB
:101D300033FA0220ADF8000069460848FFF72CFA94
:101D400020210648FFF7BEFA01210448FFF7BAFA3E
:101D500002210248FFF7B6FA08BD0000000C01405E
:101D60002DE9FC4706460024A046A1469B252846AF
:101D7000FFF734F97048FEF724FF3BE0B8F1030F9A
:101D800002DAB9F10A0F00DD35E06C48007802286C
:101D900030D109F1010000F0FF0900BF04206849BB
:101DA0000860202067494861086104206449091FD0
:101DB0000860202063494861086100BF4FF4C87083
:101DC000DFF884C1CDE90060BCF80830BCF806201B
:101DD000BCF80C10BCF80A00FFF744FE04460020D3
:101DE00056490870B9F1030F04DB1CB108F101007A
:101DF00000F0FF08C2E700BFB8F1030F0ADA53484A
:101E000000F096FE5248FEF7DCFE7820FFF7E6F879
:101E1000BDE8FC8738E026E048480078022822D157
:101E200000BF0420464908602020464948610861F7
:101E300004204349091F0860202042494861086185
:101E400000BFDFF804C10096BCF80830BCF80620DB
:101E5000BCF80C10BCF80A00FFF774FE0446002022
:101E60003649087000E0D7E700BF032C0CD1E81D0D
:101E7000C5B2D32D05D1E81FC5B22846FFF7AEF88D
:101E800004E02846FFF7AAF8D32DC4DD00BF0027E1
:101E9000BA462746032F04D16FF0270000F048FE12
:101EA00004E0022F02D1282000F042FE31E026E0BB
:101EB00022480078022822D100BF0420204908606F
:101EC000202020494861086104201D49091F08603D
:101ED00020201C494861086100BFDFF86CC00096F3
:101EE000BCF80830BCF80620BCF80C10BCF80A009E
:101EF000FFF728FE044600201049087000E0D7E7ED
:101F000000BF0AF1010000F0FF0ABAF1050F00D18D
:101F100003E0A74201D1012FC9D100BF002000F08A
:101F200007FEFFF7D1F9094800F002FE0848FEF766
:101F300048FE00BF6CE70000FFFF1F00DD0000202F
:101F400014080140001001402E000020A8FDFFFFF2
:101F5000FFFF7F0000BFFEE77047000070B5002163
:101F600000230F22C47804B3154C246804F4E06401
:101F7000C4F5E064210AC1F10403CA40447804FABC
:101F800003F184781440214309010E4C0678A155D1
:101F9000047804F01F050124AC4005786D11AD00F4
:101FA00005F1E025C5F8004109E0047804F01F05BB
:101FB0000124AC40044D0678761145F8264070BDEA
:101FC0000CED00E000E400E080E100E002490143A4
:101FD000024A1160704700000000FA050CED00E0B5
:101FE00070B50646301D092821D2DFE800F01D1A21
:101FF0001714110E0B0805004824062518E0382494
:10200000062515E02824062512E0182406250FE0F1
:10201000082406250CE008240E2509E018240E25C6
:1020200006E028240E2503E038240E2500E000BF3A
:1020300000BF21469B2000F051FD2946AB2000F057
:102040004DFD70BD10B5044614F1040F0DDB042CDA
:102050000BDC201D0007010EA72000F03FFD201D16
:102060000007010EA82000F039FD10BD10B5044690
:1020700014F1040F0ADB042C08DCC4F10400302244
:10208000A2EB8000C1B29C2000F028FD10BD10B56D
:1020900000F0E8FBFEF780FE01F038F910BD00000B
:1020A00038B50024002000908021122000F016FD99
:1020B00008B9002038BD0B220121684600F00EFC53
:1020C00008B90020F6E79DF80000212814D100246B
:1020D0000DE00B4A02EB44025178094A12F8140051
:1020E00000F0FCFC08B90020E4E7601C84B205485D
:1020F00000788442EDDB01E00020DBE70120D9E736
:1021000042000020DC00002070B50024FFF7BFFF74
:102110000EE0601CC4B2052C0ADDFFF7BDFDC088CF
:102120004004050C07A12846FFF78AF900BFFEE727
:10213000FFF7B6FF0128ECD100F09EF80020084917
:10214000087070BD4E6F204F5637373235206D6F97
:1021500064756C6520646574656374656421000052
:10216000DD00002010B50446062C14D2DFE804F090
:1021700003142D465F78FF21132000F0AFFC65218A
:102180000E2000F0ABFC00212D2000F0A7FC002168
:102190002E2000F0A3FC6CE0FD21132000F09EFC3B
:1021A0005A21012000F09AFC5C21022000F096FCEC
:1021B00065210E2000F092FC00212D2000F08EFC05
:1021C00000212E2000F08AFC53E0FD21132000F0B6
:1021D00085FC5821012000F081FC6021022000F0E4
:1021E0007DFC65210E2000F079FC00212D2000F0FF
:1021F00075FC00212E2000F071FC3AE0FD21132037
:1022000000F06CFC8421012000F068FC4C210220CD
:1022100000F064FC65210E2000F060FC00212D2000
:1022200000F05CFC00212E2000F058FC21E0FD2194
:10223000132000F053FC9621012000F04FFC4021B8
:10224000022000F04BFC65210E2000F047FC00212D
:102250002D2000F043FC00212E2000F03FFC08E080
:10226000FF21132000F03AFCE5210E2000F036FC9F
:1022700000BF00BF10BD000038B51949C87C00F090
:102280003FF81749C87BFFF76DFF154991F910001A
:10229000FFF7D8FE124991F91100FFF7A1FE10498E
:1022A00091F91200FFF7E2FE0D49C87C00F028F812
:1022B0000B4800780A4C00902389E288A188608846
:1022C00000F07DF82146887BFFF7FAF9FFF7E4FC80
:1022D000C0884004040C03A12046FFF7B1F838BDC4
:1022E0002E0000204F563737323520696E697469E9
:1022F000616C697A6520737563636573732100008F
:1023000010B50446072C58D2DFE804F004111E2B48
:10231000384552000621A62000F0E0FB8021602015
:1023200000F0DCFB8021612000F0D8FB45E0262195
:10233000A62000F0D3FB8021602000F0CFFB80219D
:10234000612000F0CBFB38E01E21A62000F0C6FB88
:10235000A021602000F0C2FB4021612000F0BEFB04
:102360002BE01E21A62000F0B9FB4021602000F0E8
:10237000B5FBA021612000F0B1FB1EE01E21A620CC
:1023800000F0ACFB8021602000F0A8FBC0216120A0
:1023900000F0A4FB11E01E21A62000F09FFB6021AD
:1023A000084600F09BFB6021612000F097FB04E0F1
:1023B0004621A62000F092FB00BF00BF10BD2DE912
:1023C000F84306460F4614461D46DDF82080B8F156
:1023D000000F04D14621122000F080FB03E006210B
:1023E000122000F07BFB17220121684600F076FAEC
:1023F0009DF8000000EBA60000F0FF0949461720F9
:1024000000F06CFBC4F38701182000F067FB192271
:102410000121684600F062FA9DF8000000EB6700B9
:1024200000F0FF094946192000F058FBC5F34701A9
:102430001A2000F053FB32220121684600F04EFAC8
:1024400004F003009DF80010084305F0010140EA84
:10245000810006F0030140EA011007F0010140EAA3
:1024600081194946322000F039FBC4F38701292045
:1024700000F034FBC5F347012C2000F02FFB2A228B
:102480000121684600F02AFA04F003009DF80010CC
:10249000084305F0010140EA810949462A2000F07D
:1024A0001DFBBDE8F883704701460020034A5068D1
:1024B00020F4404008435060704700000010024084
:1024C00029B1064A52690243044B5A6104E0034AA7
:1024D00052698243014B5A6170470000001002406C
:1024E00029B1064AD2690243044BDA6104E0034A87
:1024F000D2698243014BDA6170470000001002404C
:1025000029B1064A92690243044B9A6104E0034AE6
:1025100092698243014B9A617047000000100240AB
:1025200030B500210022002400232D4D6D6805F0F8
:102530000C0121B1042905D0082923D105E0294D3A
:10254000056022E0274D05601FE0254D6D6805F40C
:102550007012234D6D6805F48034022505EB92421C
:102560001CB9214D554305600BE01D4D6D6805F408
:1025700000351DB11C4D5543056002E0194D554312
:10258000056002E0174D056000BF00BF144D6D6887
:1025900005F0F0010909154D6B5C0568DD404560EB
:1025A0000F4D6D6805F4E061090A104D6B5C4568DC
:1025B000DD4085600A4D6D6805F46051C90A0B4D18
:1025C0006B5C4568DD40C560054D6D6805F44041B4
:1025D000890B074D6B5CC568B5FBF3F5056130BD34
:1025E0000010024000127A0000093D001400002093
:1025F000240000200F484079012819D10D480078A7
:10260000432808D10B484078412804D100200949CB
:1026100048710120704707480078432808D10548D1
:102620004078532804D10020024948710220F1E784
:102630000020EFE7280000202DE9FC470646002493
:10264000A046A14655252846FEF7C8FC7048FEF76F
:10265000B8FA3BE0B8F1030F02DAB9F10A0F00DD76
:1026600035E06C480078022830D109F1010000F013
:10267000FF0900BF042068490860202067494861BD
:10268000086104206449091F0860202063494861EB
:10269000086100BF4FF4C870DFF884C1CDE9006065
:1026A000BCF80830BCF80620BCF80C10BCF80A00D6
:1026B000FFF7D8F90446002056490870B9F1030F16
:1026C00004DB1CB108F1010000F0FF08C2E700BF05
:1026D000B8F1030F0ADA534800F02AFA5248FEF71D
:1026E00070FA7820FEF77AFCBDE8FC8738E026E037
:1026F00048480078022822D100BF042046490860DB
:10270000202046494861086104204349091F0860A8
:10271000202042494861086100BFDFF804C10096EB
:10272000BCF80830BCF80620BCF80C10BCF80A0055
:10273000FFF708FA044600203649087000E0D7E7A2
:1027400000BF022C0CD1E81FC5B2322D05D1E81D07
:10275000C5B22846FEF742FC04E02846FEF73EFCE0
:10276000322DC4DA00BF0027BA462746022F04D113
:102770006FF0270000F0DCF904E0032F02D12820DD
:1027800000F0D6F931E026E022480078022822D174
:1027900000BF0420204908602020204948610861CA
:1027A00004201D49091F086020201C494861086158
:1027B00000BFDFF86CC00096BCF80830BCF80620FB
:1027C000BCF80C10BCF80A00FFF7BCF90446002066
:1027D0001049087000E0D7E700BF0AF1010000F0DF
:1027E000FF0ABAF1050F00D103E0A74201D1012F82
:1027F000C9D100BF002000F09BF9FEF765FD094834
:1028000000F096F90848FEF7DCF900BF6CE700001D
:10281000FFFF1F00DD0000201408014000100140F0
:102820002E000020A8FDFFFFFFFF7F0010B5402114
:102830000B48FEF745FD00F071F980210848FEF7CE
:102840003FFD00F06BF940210548FEF73BFD00F02D
:1028500065F940210248FEF733FD00F05FF910BD35
:102860000010014008B501211020FFF749FE40206B
:10287000ADF8000003208DF8020014208DF803004D
:1028800069460748FEF788FC01211020FFF738FE53
:102890008020ADF8000069460148FEF77DFC08BDC8
:1028A0000010014010B540210B48FEF709FD00F073
:1028B00035F980210848FEF705FD00F02FF9402189
:1028C0000548FEF7FFFC00F029F940210248FEF719
:1028D000F7FC00F023F910BD0010014070B505466B
:1028E0000C46164600F08EF808B9002070BD422054
:1028F00000F05CF800F0CCF818B900F0ADF800205A
:10290000F4E7304600F052F800F0C2F800F0A4F806
:1029100000F078F808B90020E8E7432000F046F816
:1029200000F0B6F818B900F097F80020DEE70CE0E8
:1029300000F012F82870012C02D1FFF7B3FF01E07C
:10294000FFF774FF6D1C601E84B2002CF0D100F004
:1029500083F80120CAE7000070B508250024802113
:102960001148FEF7AFFC14E06006040E40210E484B
:10297000FEF7A6FC00F0D2F840210B48FEF7A2FCBF
:1029800000F0CCF880210848FEF791FC08B144F033
:1029900001042800A5F10101CDB2E5D14021024892
:1029A000FEF78EFC204670BD0010014070B5044655
:1029B00008251BE040211248FEF782FC00F0AEF82B
:1029C00004F0800020B180210D48FEF77BFC03E07D
:1029D00080210B48FEF774FC6006040E00F09EF8A0
:1029E00040210748FEF76EFC00F098F82800A5F19A
:1029F0000101CDB2DED140210148FEF761FC70BD7E
:102A00000010014010B580211248FEF75BFC402108
:102A10001048FEF757FC00F081F880210D48FEF7C2
:102A200046FC08B9002010BD80210A48FEF748FC8A
:102A300000F074F880210748FEF739FC08B1002047
:102A4000F1E780210348FEF73BFC00F067F8012026
:102A5000E9E700000010014010B540210B48FEF7E7
:102A60002FFC00F05BF880210848FEF729FC00F0FD
:102A700055F840210548FEF725FC00F04FF880216D
:102A80000248FEF71FFC00F049F810BD001001409D
:102A900010B540211048FEF713FC00F03FF88021EC
:102AA0000D48FEF70FFC00F039F840210A48FEF708
:102AB00009FC00F033F880210748FEF7F8FB28B145
:102AC00040210548FEF7FCFB002010BD40210248D4
:102AD000FEF7F6FB0120F8E70010014070B5044650
:102AE0000D46FFF78FFF08B9002070BD4220FFF7A9
:102AF0005DFFFFF7CDFF18B9FFF7AEFF0020F4E749
:102B0000E0B2FFF753FFFFF7C3FF2846FFF74EFF82
:102B1000FFF7BEFFFFF7A0FF0120E6E74FF4C87004
:102B200001E0411E88B20028FBD1704770470000C9
:102B300038B504460DA000680090200A8DF8020008
:102B4000E0B28DF8030000250DE01DF805100848DF
:102B500000F0D5FB00BF4021054800F003FB002832
:102B6000F9D0681CC5B2042DEFDB38BD534C000012
:102B70000038014010B500F001F810BD0CB5002080
:102B8000019000903348006840F48030314908607B
:102B900000BF3048006800F4003000900198401CED
:102BA0000190009818B90198B0F5A06FF1D12948AB
:102BB000006800F4003010B10120009001E0002016
:102BC00000900098012843D12348006840F010008D
:102BD000214908600846006820F0030008600846A4
:102BE000006840F0020008601A48406819494860CF
:102BF0000846406848600846406840F48060486085
:102C00000846406820F47C1048600846406840F45C
:102C1000E81048600846006840F08070086000BF17
:102C20000C48006800F000700028F9D0094840689E
:102C300020F00300074948600846406840F0020061
:102C4000486000BF0348406800F00C000828F9D134
:102C50000CBD0000001002400020024010B500F042
:102C60003DFA00F033FA00240CE0084850F8240044
:102C700030B1064850F82400401E044941F82400B1
:102C8000601CC4B2032CF0DB10BD00001801002052
:102C900030B5164800684FF47A72B0FBF2F1B1F12A
:102CA000807F01D301201DE021F07F40401E4FF0C6
:102CB000E022506150170F22002807DA13071D0E7B
:102CC0000B4B00F00F04241F1D5503E013071C0ECF
:102CD000084B1C5400BF00204FF0E02290610720F9
:102CE0001061002008B100BFFEE730BD00000020E9
:102CF00018ED00E000E400E010B51348006840F073
:102D000001001149086008464068104908400E4912
:102D10004860084600680E4908400B4908600846AC
:102D2000006820F4802008600846406820F4FE0017
:102D300048604FF41F008860FFF71CFF4FF00060F1
:102D40000449086010BD0000001002400000FFF8B8
:102D5000FFFFF6FE08ED00E021B1028842F001021B
:102D6000028004E002884FF6FE731A40028070472A
:102D700070B5002400220023058C4FF6FE76354006
:102D80000584028C8388048B4FF68F752C40B51E0A
:102D90002C400D882C43751E2A400D892A434D88EE
:102DA0002A43144DA8420BD0134DA84208D0134D0E
:102DB000A84205D0124DA84202D0124DA84213D10C
:102DC0004FF6F7752A404D892A434FF6FB752A4086
:102DD0008D882A434FF6FF652B404FF6FF552B4059
:102DE0008D892B43CD892B4383800483CD888586B1
:102DF000028470BD002C01400034014000400140BD
:102E000000440140004801400A460021018B4FF672
:102E1000F7731940114301837047000070B5002417
:102E200000220023058C4FF6EF7635400584028C96
:102E30008388048B48F6FF752C404FF6FF452C40E5
:102E40000D884FF6FF7606EA05252C434FF6DF7511
:102E50002A400D8906EA05152A434D8806EA05151C
:102E60002A43154DA84202D0144DA8421DD14FF659
:102E70007F752A404D894FF6FF7606EA05152A43ED
:102E80004FF6BF752A408D8806EA05152A434FF68E
:102E9000FF352B404FF2FF752B408D8906EA8505E3
:102EA0002B43CD8906EA85052B4383800483CD8897
:102EB0000587028470BD0000002C014000340140F1
:102EC0000A460021018B4FF2FF7319404FF6FF7342
:102ED00003EA0223194301837047000070B5002400
:102EE00000220023058C4FF6FF6635400584028CD6
:102EF0008388848B4FF68F752C404FF6FC752C40E1
:102F00000D882C434FF6FF552A400D894FF6FF766A
:102F100006EA05252A434D8806EA05252A43154D6C
:102F2000A84202D0144DA8421DD14FF2FF752A408D
:102F30004D894FF6FF7606EA05252A434FF6FF3501
:102F40002A408D8806EA05252A434EF6FF752B4058
:102F50004DF6FF752B408D8906EA05152B43CD896B
:102F600006EA05152B4383808483CD8885870284F8
:102F700070BD0000002C0140003401400A460021D1
:102F8000818B4FF6F773194011438183704700001E
:102F900070B5002200230024058C4EF6FF763540E4
:102FA0000584038C8488828B48F6FF752A404FF68F
:102FB000FF452A400D884FF6FF7606EA05252A438D
:102FC0004DF6FF752B400D8906EA05352B434D88DC
:102FD00006EA05352B430B4DA84202D00A4DA84204
:102FE00008D14BF6FF752C408D894FF6FF7606EA27
:102FF00085152C4384808283CD88A0F840500384BB
:1030000070BD0000002C0140003401400A46002140
:10301000818B4FF2FF7319404FF6FF7303EA0223CF
:103020001943818370470000002202881D4B98429B
:103030000ED01D4B98420BD0B0F1804F08D01B4BE7
:10304000984205D01A4B984202D01A4B984204D1AC
:103050004FF68F731A404B881A43174B984207D08C
:10306000164B984204D04FF6FF431A40CB881A43C0
:1030700002808B8883850B8803850A4B98420BD08E
:10308000094B984208D00E4B984205D00D4B984200
:1030900002D00D4B984201D10B7A03860123838223
:1030A00070470000002C0140003401400004004043
:1030B00000080040000C00400010004000140040D8
:1030C00000400140004401400048014002480068BF
:1030D000401C0149086070470C010020044800684A
:1030E00020B103480068401E014908607047000095
:1030F0000801002010B540F22551124800F03FF8B9
:10310000F0B1104800F0F6F8C4B23C2C02D03E2CCE
:1031100009D104E000200C49087148710FE001203A
:10312000094948710BE0084801790079401C064ABA
:1031300010711046445400201146487100BF00BF72
:1031400010BD0000003801402800002021B1828914
:1031500042F40052828104E082894DF6FF731A40E6
:103160008281704702460020B1F5007F00D100BF88
:1031700013880B400BB1012000E00020704770B5B0
:103180000246002400230025002040F66A16B142C2
:1031900000D100BFC1F3421501F01F03012606FA5A
:1031A00003F3012D02D19689334006E0022D02D1AE
:1031B000168A334001E0968A33400C12012606FA43
:1031C00004F41688344013B10CB1012000E0002053
:1031D00070BDF0B50346002400260025002040F60F
:1031E0006A17B94200D100BF1846C1F3421401F07A
:1031F0001F06012707FA06F5012C01D10C3004E067
:10320000022C01D1103000E014301AB107682F43AE
:10321000076002E00768AF430760F0BD2DE9F047A3
:1032200086B005460E460024A24600BFA1460027F0
:10323000B08900B100BF2F462C8A4CF6FF700440C5
:10324000F08804432C82AC894EF6F3100440B08819
:1032500031890843718908430443AC81AC8A4FF635
:10326000FF400440B0890443AC8201A8FFF758F93D
:103270001F48874202D1DDF810A001E0DDF80CA064
:10328000A88900F4004040B10AEBCA0000EB0A1024
:1032900031684900B0FBF1F807E00AEBCA0000EB27
:1032A0000A1031688900B0FBF1F86420B8FBF0F037
:1032B00004012009642101FB1089A88900F4004061
:1032C00040B1322000EBC900B0FBF1F000F0070084
:1032D000044308E0322000EB09106421B0FBF1F058
:1032E00000F00F0004432C8106B0BDE8F087000019
:1032F0000038014001468888C0F308007047C1F3D8
:1033000008028280704700BFFEE700001FB5012160
:103310004120FFF7F5F80820ADF80C0004208DF8E7
:103320000F0003208DF80E0003A91648FDF734FFA7
:1033300003210220FDF710FF0820019000208DF8E6
:1033400008000C208DF8090001208DF80A0001A862
:10335000FDF7D8FC0820FDF7B9FC4FF4C060FEF77C
:1033600035FE09208DF8000000208DF801000320B3
:103370008DF8020001208DF803006846FEF7EEFD8F
:103380001FBD00000010014002E008C8121F08C164
:10339000002AFAD170477047002001E001C1121FD6
:1033A000002AFBD170470000014908607047000007
:1033B000140100202DE9F04101460F884C888D88CA
:1033C0000B88B1F800C04888984201DA184600E03E
:1033D000488803468888984201DA184600E08888C1
:1033E00003464888604501DD604600E04888844621
:1033F0008888604501DD604600E088888446A3EB4C
:103400000C0606B90022BB420BD1AC4209DB601BA3
:103410004FF0640800FB08F0C0EB0010800090FB48
:10342000F6F2BB420FD1AC420DDA281B4FF0640814
:1034300000FB08F0C0EB0010800090FBF6F048F6AF
:10344000A048A8EB0002A3420DD1E81B4FF064088E
:1034500000FB08F0C0EB0010800090FBF6F042F695
:10346000E06800EB0802AB420DD1381B4FF0640856
:1034700000FB08F0C0EB0010800090FBF6F045F672
:10348000C05800EB080241F23010824203DD41F2E5
:103490005C2082420EDBB2F5965F03DD41F2243000
:1034A000824207DB41F69020824206DD41F6583029
:1034B000824202DA0120BDE8F0810020FBE7000033
:1034C00008B54FF0000800203A4908714871009093
:1034D000FEF7E8FB4FF4E13000F09CF8FEF710FC3B
:1034E000FEF7BAFBFFF7D4FBFEF70EFEFDF7D8FDA3
:1034F000FDF718FFFDF70EFA2820FDF76BFB0546D8
:10350000C246C346002654E0BAF1000F01D100279D
:1035100001E029484788BBF1000F02D14FF00009B4
:1035200002E02548B0F80090FFF764F804468CB13B
:10353000012C0CD1701CC6B2A246012E01D0062E61
:1035400002D14FF0000B05E04FF0010B02E04FF00D
:10355000000AD346AF4204DAA94502DA4FF0000868
:1035600027E04046411C1FFA81F80A2800DA20E0D3
:103570001248FDF726FB4FF49670FFF7D9FAAF42D9
:1035800008DD0098FEF7ECFB0D48FDF71AFB4FF045
:10359000000A07E00098FFF74FF80A48FDF711FB13
:1035A0004FF0000B4FF4C860FFF7C2FA4FF000086D
:1035B00000BFA9E72800002010010020FFFF0F0036
:1035C000FFFF1800FFFF1F002DE9F04106460F46E0
:1035D000FDF757F804000D4618BF0120284320F0DE
:1035E0000040C0F17F6000F1E040C00F0ED0301C01
:1035F00018BF0120384320F00040C0F17F6000F187
:10360000E040C00F04BF0120FFF7CEFE2046294650
:10361000BDE8F08110B586B00446012144F20400F3
:10362000FEF76EFF4FF40070ADF8040018208DF81F
:10363000070003208DF8060001A91D48FDF7ACFD29
:103640004FF48060ADF8040004208DF8070001A954
:103650001748FDF7A1FD02940020ADF80C00ADF86D
:103660000E00ADF81000ADF814000C20ADF81200FB
:1036700002A91048FFF7D2FD01210E48FFF766FDB1
:1036800040210C48FFF76EFD25208DF8000000203A
:103690008DF8020001208DF803006846FEF75EFCFD
:1036A000012240F225510348FFF793FD06B010BDFB
:1036B0000008014000380140000000000000000048
:1036C0000000000000000000000000181818181882
:1036D000180800081800000000000034242424000A
:1036E00000000000000000000000000016247F24FD
:1036F00024247E2424000000000000083E6848685E
:103700001C1612127C10100000000061D296740882
:1037100010162949C6000000000000003C6464380F
:10372000724ACE467F0000000000001818181800EA
:103730000000000000000000000000040818103025
:103740003030301010180C04000000201008080C55
:103750000404040C08181020000000080A341C6A35
:103760000800000000000000000000000000181821
:10377000187F18181800000000000000000000006A
:1037800000000018180830000000000000000000D1
:10379000003C0000000000000000000000000000ED
:1037A00000000018180000000000000206040C08C9
:1037B0000810102020400000000000003C66424736
:1037C0005B7342663C000000000000001878480867
:1037D000080808087E000000000000003C460606BD
:1037E000040810207E000000000000007C06060493
:1037F0003C0202067C000000000000000C1C1424A7
:103800006444FF0404000000000000007E6060606B
:103810007E0202067C000000000000001E306048AE
:10382000764242623C000000000000007E02060476
:103830000C08181030000000000000003C62423606
:103840001C6642423C000000000000003C66424210
:10385000661A02047800000000000000000018183A
:1038600000000018180000000000000000001818F8
:1038700000000018180830000000000000000418C4
:103880003060100C06000000000000000000000086
:103890007E007E00000000000000000000003018E4
:1038A00004060C1020000000000000301C06060674
:1038B00018100010100000000000001C224141DD23
:1038C000B5A5A5AF94C0403C00000000181C3424EE
:1038D00026627E43C1000000000000007C46424694
:1038E0007C4242427C000000000000001E2040405C
:1038F000404040603E000000000000007C46424323
:103900004343424678000000000000007E60606093
:103910007E6060607E000000000000007E606060ED
:103920007E60606060000000000000001E6040409B
:10393000CE4242623E00000000000000424242428D
:103940007E42424242000000000000007E1818182B
:10395000181818187E000000000000007C04040401
:103960000404044478000000000000004244485071
:1039700070584C444200000000000000202020202D
:10398000202020203E000000000000006266675FEB
:103990005B5BC1C1C10000000000000062627252A6
:1039A0005A4A4E4646000000000000003C6243C3F5
:1039B000C3C343623C000000000000007C4642425A
:1039C0004678404040000000000000003C6243C3D5
:1039D000C3C343623C180F00000000007C666266AF
:1039E0007C6C646662000000000000003E60406085
:1039F0001C0602027C000000000000007F1818185E
:103A00001818181818000000000000004242424236
:103A1000424242623C00000000000000C14342629A
:103A20002624341C1800000000000000C1C14149D8
:103A30005B5B766666000000000000004366341899
:103A4000181C2466C300000000000000C142663458
:103A50001C18181818000000000000007E02040C5A
:103A6000181020607E0000000000001C10101010D4
:103A7000101010101010101C00000040202010101A
:103A800008080C04060200000000003C0C0C0C0CA2
:103A90000C0C0C0C0C0C0C3C00000000181C2462DC
:103AA0000000000000000000000000000000000016
:103AB00000000000000000FF0000002010000000D7
:103AC00000000000000000000000000000003C06B4
:103AD000023E42467A0000000000004040405C6226
:103AE000424242427C0000000000000000001E2014
:103AF000604060203E0000000000000202023E62C2
:103B0000424242663A0000000000000000003C62B1
:103B1000427E40603E0000000000000F1810107E42
:103B200010101010100000000000000000003F66A0
:103B3000426658403E43423C0000004040405C62C8
:103B4000424242424200000000000018180078087B
:103B5000080808087E000000000000040C007C0437
:103B60000404040404040C78000000606060626CCB
:103B70007870686462000000000000780808080897
:103B8000080808087E000000000000000000764BD6
:103B90004B4B4B4B4B0000000000000000005C62F0
:103BA00042424242420000000000000000003C622D
:103BB000424342623C0000000000000000005C62E2
:103BC000424242427C4040400000000000003E6211
:103BD000424242663A0202020000000000006E7299
:103BE00063606060600000000000000000003E2094
:103BF000203C06027C000000000000001010FE10B7
:103C0000101010101E0000000000000000004242D2
:103C1000424242663A0000000000000000004342B9
:103C20006624341818000000000000000000C1C124
:103C30005B5A5E666600000000000000000062261D
:103C40001C181C2662000000000000000000434217
:103C50006624341C181830E00000000000007E06C6
:103C60000C1810207E0000000000000E181010102C
:103C7000307010101010180E00000808080808080E
:103C80000808080808080808000000301808080894
:103C90000C0E0808080818300000000000000000A2
:103CA000714B060000000000000000000000000052
:103CB0000000000000000000000000000000000004
:103CC00000000000000000000000000000000000F4
:103CD00000000000000000000000000000000000E4
:103CE000000003800180018001800180018001804B
:103CF0000180018001800000000003C003C00000BB
:103D000000000000000000000000000000000000B3
:103D100000000E700E700E700C30000000000000ED
:103D20000000000000000000000000000000000093
:103D30000000000000000000000000000000000083
:103D4000000000000618063806307FFE0C300C30EC
:103D50000C300C307FFE0C601C6018601860000096
:103D60000000000000000000000000000000000053
:103D700000C000C00FF83CC831C031803D801F80BA
:103D800003F001F8031C030C031C3FF83FE007009D
:103D9000060000000000000000000000000000001D
:103DA0001C007E0E630C631863307E6000C00180CF
:103DB0000300077C0EE61CC618C630C6607C0000F7
:103DC00000000000000000000000000000000000F3
:103DD00000000FE01CF0387038701C601FC00F002E
:103DE0003F8C71CC60EC607C70383CFC1FCE0000D6
:103DF00000000000000000000000000000000000C3
:103E0000000003C00180018001800000000000006C
:103E100000000000000000000000000000000000A2
:103E20000000000000000000000000000000000092
:103E3000003000E001C0018003000700060006001A
:103E40000E000E000E000E000600070003000380A7
:103E500001C000E000300000000000000000000091
:103E60000C0006000380018001C000E000600060DB
:103E70000070007000700060006000E000C0018011
:103E8000038006000C00000000000000000000009D
:103E90000000018011881DB803C007E03DBC018807
:103EA0000180000000000000000000000000000091
:103EB0000000000000000000000000000000000002
:103EC00000000000000000000180018001800180EE
:103ED00001807FFE018001800180018000000000E0
:103EE00000000000000000000000000000000000D2
:103EF00000000000000000000000000000000000C2
:103F0000000000000000000003C003C001C001C0A9
:103F100003801F00000000000000000000000000FF
:103F20000000000000000000000000000000000091
:103F300000000FF000000000000000000000000082
:103F40000000000000000000000000000000000071
:103F50000000000000000000000000000000000061
:103F6000000000000000000003C003C003C0000008
:103F70000000000000000000000000000000000041
:103F80000000001800380030006000E000C001C0F0
:103F900001800300030006000E000C001C00180046
:103FA00030000000000000000000000000000000E1
:103FB000000001800FF01C38381C301C707E70EE41
:103FC000738E7E0E7C0C300C381C1E780FE00000C7
:103FD00000000000000000000000000000000000E1
:103FE0000000000007C01FC039C001C001C001C0EF
:103FF00001C001C001C001C001C03FFC3FFC000086
:1040000000000000000000000000000000000000B0
:10401000000003801FF018380038001800380038FE
:10402000007001E0038007001C003FFC3FFC000023
:104030000000000000000000000000000000000080
:10404000000007801FF0003800380038003007E01B
:1040500007F00038001C001C001820F83FE00000AA
:104060000000000000000000000000000000000050
:104070000000000000F001B0033007300E301C30AB
:10408000383070307FFE7FFE00300030003000009E
:104090000000000000000000000000000000000020
:1040A000000000001FF818001800180018001FE09A
:1040B00000F8001C001C001C003800F01FC00000AD
:1040C00000000000000000000000000000000000F0
:1040D0000000000003F80F001C001800300037F843
:1040E0003C3C300C300C380C381C1E380FF00000F3
:1040F00000000000000000000000000000000000C0
:10410000000000003FFC001C001800380070006038
:1041100000E001C001800380070006000E000000DF
:10412000000000000000000000000000000000008F
:10413000000003C01FF8381C381C381C1C380FF056
:1041400007F01C78381C300C381C3C380FF000008D
:10415000000000000000000000000000000000005F
:10416000000003801FF03838301C701C700C380CB5
:104170001FFC0FCC001C001800701FE01F80000007
:10418000000000000000000000000000000000002F
:104190000000000000000000000003C003C0018018
:1041A000000000000000000003C003C003C00000C6
:1041B00000000000000000000000000000000000FF
:1041C0000000000000000000000003C003C00180E8
:1041D000000000000000000003C003C001C001C0D7
:1041E00003800F000000000000000000000000003D
:1041F0000000000000000000003800F001C00700CF
:104200001E0038000E00078001C000700030000062
:10421000000000000000000000000000000000009E
:1042200000000000000000000000000000003FFC53
:10423000000000003FFC3FFC000000000000000008
:10424000000000000000000000000000000000006E
:1042500000000000000000001C000F00038001E0CF
:104260000078001C007001E003800E000C000000CC
:10427000000000000000000000000000000000003E
:1042800000000FC000F0003800380038003803F09C
:104290000380030003000000000007800780000087
:1042A000000000000000000000000000000000000E
:1042B00000E007F80C0C18063006700363F3663351
:1042C000C673CC63CC62CC66CCE6C7FCE000600071
:1042D000700038101FF00000000000000000000017
:1042E0000000000003C007E006E00E700E700C3006
:1042F0001C3818183FFC3FFC700E600EE0070000F1
:1043000000000000000000000000000000000000AD
:10431000000000003FF03838381C381C38383FF0B7
:104320003FF8381C380C380C381C3FF83FE00000D0
:10433000000000000000000000000000000000007D
:10434000000000E007FC1E04380038003000700058
:1043500070007000300038003C001F9C07FC00001B
:10436000000000000000000000000000000000004D
:10437000000000003FF03078301C300C300E300E62
:10438000300E300E300E301C30383FF03FC0000091
:10439000000000000000000000000000000000001D
:1043A000000000001FF818001800180018001FF87F
:1043B0001FF818001800180018001FF81FF8000058
:1043C00000000000000000000000000000000000ED
:1043D000000000001FF818001800180018001FF84F
:1043E0001FF8180018001800180018001800000026
:1043F00000000000000000000000000000000000BD
:10440000000000F007FC1E0438003000700070004F
:1044100070FC700C700C300C380C1F1C07FC00007A
:10442000000000000000000000000000000000008C
:1044300000000000300C300C300C300C300C3FFC15
:104440003FFC300C300C300C300C300C300C0000C9
:10445000000000000000000000000000000000005C
:10446000000000003FFC018001800180018001808C
:10447000018001800180018001803FFC3FFC000041
:10448000000000000000000000000000000000002C
:10449000000000001FF0003000300030003000301D
:1044A000003000300030003000701DE01FC0000000
:1044B00000000000000000000000000000000000FC
:1044C00000000000381C387038E039C03B803F00E5
:1044D0003F003B8039C038E038703838381C000065
:1044E00000000000000000000000000000000000CC
:1044F000000000001C001C001C001C001C001C0014
:104500001C001C001C001C001C001FFC1FFC0000E9
:10451000000000000000000000000000000000009B
:1045200000000000381C7C3C6C3E6E6E666E66CEF1
:1045300063C66386618660066006600660060000EA
:10454000000000000000000000000000000000006B
:10455000000000003C0C3C0C3E0C360C330C338C41
:10456000318C31CC30EC306C307C303C301C000075
:10457000000000000000000000000000000000003B
:10458000000001C00FF81C3C381C700E700E600655
:104590006006700E700E700C381C1E780FE0000064
:1045A000000000000000000000000000000000000B
:1045B000000000003FF0383C381C380C380C381C28
:1045C00038783FE038003800380038003800000004
:1045D00000000000000000000000000000000000DB
:1045E000000001C00FF81C3C381C700E700E6006F5
:1045F0006006700E700E700C381C1E780FE0018083
:1046000001C000FF003C00000000000000000000AE
:10461000000000003FF0383838183818383838F0C3
:104620003FC038E0387038383838381C380E000051
:10463000000000000000000000000000000000007A
:10464000000001E00FF83800380038003C001F80FF
:1046500003F00078001C001C001C38783FE00000CC
:10466000000000000000000000000000000000004A
:10467000000000007FFE0180018001800180018038
:1046800001800180018001800180018001800000A3
:10469000000000000000000000000000000000001A
:1046A00000000000300C300C300C300C300C300CA2
:1046B000300C300C300C300C381C1C380FF0000063
:1046C00000000000000000000000000000000000EA
:1046D00000000000E006700E700E381C381C1C181C
:1046E0001C380C300E70066007E003C003C00000E9
:1046F00000000000000000000000000000000000BA
:104700000000000060066006600660066186638641
:1047100073C673CE766C366C3C3C3C3C381C000057
:104720000000000000000000000000000000000089
:1047300000000000301C38181C380E7007E003C061
:1047400003C007E00E701C381838381C700E0000CB
:104750000000000000000000000000000000000059
:1047600000000000700E700C381C1C380E700660C3
:1047700007E003C00180018001800180018000000A
:104780000000000000000000000000000000000029
:10479000000000003FFC001C0038007000E001C079
:1047A000038007000E000C0018003FFC3FFC0000D7
:1047B00000000000000000000000000000000000F9
:1047C00007F007F0060006000600060006000600D7
:1047D00006000600060006000600060006000600A9
:1047E0000600060007F000000000000000000000C6
:1047F000000018001C000C000600070003000380E6
:10480000018001C000C00060007000300038001856
:10481000000C00000000000000000000000000008C
:104820000FE00FE00060006000600060006000606A
:104830000060006000600060006000600060006078
:10484000006000600FE000000000000000000000B9
:104850000000000003C006C006600C301818301CB1
:104860000000000000000000000000000000000048
:104870000000000000000000000000000000000038
:104880000000000000000000000000000000000028
:104890000000000000000000000000000000000018
:1048A00000000000FFFF000000000000000000000A
:1048B00000001E0003800000000000000000000057
:1048C00000000000000000000000000000000000E8
:1048D00000000000000000000000000000000000D8
:1048E000000000000000000000001FF01038001C55
:1048F000001C0FFC1C1C381C381C3CFC1FDC00007E
:1049000000000000000000000000000000000000A7
:10491000000038003800380038003BF83E1C3C1CD2
:10492000380C380C380C380C381C3C781FE0000070
:104930000000000000000000000000000000000077
:104940000000000000000000000007F80E001C003E
:1049500038003800380038001C000F1807F8000035
:104960000000000000000000000000000000000047
:104970000000001C001C001C001C0FFC1C1C381C30
:10498000301C301C301C301C383C1CFC0F9C0000C0
:104990000000000000000000000000000000000017
:1049A000000000000000000000000FF01C38381C60
:1049B000300C3FFC3000300038001E0C07FC0000BB
:1049C00000000000000000000000000000000000E7
:1049D000003C01FE03800300030003007FFC7FFC1A
:1049E00003000300030003000300030003000000B2
:1049F00000000000000000000000000000000000B7
:104A0000000000000000000000000FFE1C383818F5
:104A1000381818381FF03B8030003FF01FFC300E74
:104A2000700E381C1FF8000000000000000000009D
:104A3000000038003800380038003BF83E383C1C95
:104A4000381C381C381C381C381C381C381C00001A
:104A50000000000000000000000000000000000056
:104A6000018003C003C0000000001FC001C001C0DE
:104A700001C001C001C001C001C001C03FFC000075
:104A80000000000000000000000000000000000026
:104A9000002000700070000000003FF00070007007
:104AA0000070007000700070007000700070007086
:104AB000007020E03FC00000000000000000000087
:104AC00000001800180018001800183C187018E0B2
:104AD0001B801F001B8019E018701838181C00007C
:104AE00000000000000000000000000000000000C6
:104AF00000001FC001C001C001C001C001C001C051
:104B000001C001C001C001C001C001C03FFC0000E4
:104B10000000000000000000000000000000000095
:104B2000000000000000000000006F3C79EE71CE34
:104B3000718E718E718E718E718E718E718E00007C
:104B40000000000000000000000000000000000065
:104B5000000000000000000000003BF83E383C1C54
:104B6000381C381C381C381C381C381C381C0000F9
:104B70000000000000000000000000000000000035
:104B8000000000000000000000000FF01C3C381C7A
:104B9000700E700E700E700C381C1E780FE0000046
:104BA0000000000000000000000000000000000005
:104BB000000000000000000000003BF83E1C3C1C10
:104BC000380C380C380C380C381C3C783FE0380076
:104BD000380038003800000000000000000000002D
:104BE000000000000000000000000FFC1C1C381C2E
:104BF000301C301C301C301C383C1CFC0F9C001C32
:104C0000001C001C001C0000000000000000000050
:104C10000000000000000000000019F81F1C1C0C20
:104C2000180E1800180018001800180018000000CE
:104C30000000000000000000000000000000000074
:104C4000000000000000000000000FF81C00180029
:104C50001E000FC001F80018001818381FF00000DF
:104C60000000000000000000000000000000000044
:104C7000000000000600060006007FFC060006009B
:104C800006000600060006000700078401FC00007D
:104C90000000000000000000000000000000000014
:104CA00000000000000000000000381C381C381C08
:104CB000381C381C381C381C383C1CFC0FDC00002D
:104CC00000000000000000000000000000000000E4
:104CD00000000000000000000000700C381C3818B4
:104CE0001C380C300E70066007E003C003C00000E3
:104CF00000000000000000000000000000000000B4
:104D000000000000000000000000600660066186F0
:104D1000738E73CC33CC366C366C3C3C3C38000024
:104D20000000000000000000000000000000000083
:104D300000000000000000000000381C1C380E704D
:104D400007E003C003C007E00E701C38381E0000E7
:104D50000000000000000000000000000000000053
:104D600000000000000000000000700C381C381823
:104D70001C380C300E70066007E003C003C00380CF
:104D800007000E007C000000000000000000000092
:104D9000000000000000000000001FF80038007054
:104DA00000E001C0038007000C001FFC3FFC000076
:104DB00000000000000000000000000000000000F3
:104DC000007801F8038003800380038003800300E0
:104DD0003F003E00030003800380038003800380C4
:104DE000038001C000F80000000000000180018085
:104DF00001800180018001800180018001800180AB
:104E0000018001800180018001800180018001809A
:104E1000018001800180000000000000000000000F
:104E20001E001F80018001C001C001C001C000C080
:104E300000FC007C00C001C001C001C001C001C075
:104E400001C003801F0000000000000000000000FF
:104E500000000000000000000000000000001C0036
:104E60003F0671CE60FC0000000000000000000062
:104E70000000000000000000000000000000000032
:104E80000000000000000000000000000000000022
:104E90000000000000000000000000000000000012
:104EA0000000000000000000000000000000000002
:104EB00000000000000000000000000000000000F2
:104EC00000000000000000000000000000000000E2
:104ED00000000000000000000000000000000000D2
:104EE00000000000000000000000003C00003C004A
:104EF000003C00003C00003C00003C00003C000086
:104F00003C00003C00003C00003C00003C00003C39
:104F100000003C00000000000000003C00007E009B
:104F2000003C000000000000000000000000000045
:104F30000000000000000000000000000000000071
:104F40000000000000000000000003C3E003C3E015
:104F500003C3C003C3C003C3C003C3C003C1C000B5
:104F60000000000000000000000000000000000041
:104F70000000000000000000000000000000000031
:104F80000000000000000000000000000000000021
:104F90000000000000000000000000000000000011
:104FA0000000000000000000000000000000000001
:104FB00001E0E001C0E001C0E001C0E03FFFFE3FD2
:104FC000FFFE03C1C00381C00381C00381C07FFF16
:104FD000FC7FFFFC078380070380070380070380B3
:104FE0000707800000000000000000000000000033
:104FF00000000000000000000000000000000000B1
:1050000000000000000000000700000F00000E007C
:1050100001FFF007FFF01F0E001E1E001E1C001EE9
:105020001C000FDC0007FC0000FF80003FF0003890
:10503000F800387800783C0070783071F83FFFE075
:105040001FFF0000E00000E00000E00000000000A2
:105050000000000000000000000000000000000050
:10506000000000000000000000000F800F3FE01E65
:1050700078703C7070707070E07071C03FE3801F9A
:10508000C700000E00001C0000780000F0F001E7EF
:10509000FC03CF0E078E0E0F0E0E1E0E0E3C07BC2D
:1050A0007003F80000000000000000000000000095
:1050B00000000000000000000000000000000000F0
:1050C0000000000000000000000000000001FF00E0
:1050D00007FF800F03C00F03C00F03C00F07800737
:1050E0009F0003FE0003F0000FF83C3E7C3C3C1F99
:1050F0003C780FF87807F87C01F03E03F81FFFFCBE
:1051000007FE1F000000000000000000000000007B
:10511000000000000000000000000000000000008F
:1051200000000000000000000000003E00003C0005
:10513000003C00003C00003C00003C00003C000043
:10514000000000000000000000000000000000005F
:10515000000000000000000000000000000000004F
:10516000000000000000000000000000000000003F
:10517000000000000000000000000000000000002F
:10518000000000000000000000800001C000078057
:10519000000F00001E00003C0000780000F000003E
:1051A000E00001E00001E00001C00003C00003C016
:1051B0000001C00001E00001E00000F00000F0008C
:1051C000007800003C00001E00000F000007C00037
:1051D00001C000000000000000000000000000000E
:1051E0000000000000000000000003C00001E0001B
:1051F00000F000007C00003E00001E00000F0000D8
:1052000007800007800003800003C00003C0000384
:10521000C00003C0000380000780000780000F006B
:10522000001E00003C0000780000F00001E00003D8
:1052300080000000000000000000000000000000EE
:1052400000000000000000000000001C00001C0026
:105250000018000F18F007DBE0007F0000FF0007D8
:10526000DBE00E1870001800001C00001C0000009D
:10527000000000000000000000000000000000002E
:10528000000000000000000000000000000000001E
:10529000000000000000000000000000000000000E
:1052A00000000000000000000000000000000000FE
:1052B000000000000000000000003C00003C000076
:1052C0003C00003C00003C00003C003FFFFC3FFF76
:1052D000FC003C00003C00003C00003C00003C00A6
:1052E00000000000000000000000000000000000BE
:1052F00000000000000000000000000000000000AE
:10530000000000000000000000000000000000009D
:10531000000000000000000000000000000000008D
:10532000000000000000000000000000000000007D
:1053300000000000000000007C00007E00007E00F5
:10534000003E00001E00003C0000F80007E00004E2
:10535000000000000000000000000000000000004D
:10536000000000000000000000000000000000003D
:10537000000000000000000000000000000000002D
:10538000000000000000000000000003FFE003FF39
:10539000E00000000000000000000000000000002D
:1053A00000000000000000000000000000000000FD
:1053B00000000000000000000000000000000000ED
:1053C00000000000000000000000000000000000DD
:1053D00000000000000000000000000000000000CD
:1053E00000000000000000000000000000000000BD
:1053F00000000000000000007C0000FE0000FE0035
:10540000007E00000000000000000000000000001E
:10541000000000000000000000000000000000008C
:10542000000000000000000000000000780000F014
:105430000000E00001E00003C000038000078000DE
:105440000F00000E00001E00003C0000380000703D
:105450000000F00000E00001C00003C00007800071
:105460000700000F00001E00001C000000000000EC
:10547000000000000000000000000000000000002C
:10548000000000000000000000000000000000001C
:1054900001FFC007FFE00F00F01E00781E003C3C3B
:1054A00000FC3C07FC3C1FBC3C7C1C3DF03C3FC06E
:1054B0003C3F003C1E00381E00780F80F007FFE0E4
:1054C00001FF80000000000000000000000000005C
:1054D00000000000000000000000000000000000CC
:1054E00000000000000000000000000000000000BC
:1054F000007E0003FE001FDE000E1E00001E0000E6
:105500001E00001E00001E00001E00001E00001EE7
:1055100000001E00001E00001E00001E000FFFF80D
:105520000FFFF80000000000000000000000000075
:10553000000000000000000000000000000000006B
:10554000000000000000000000000000000000005B
:1055500003FF800FFFE00E01F00000F00000F000FC
:1055600000F00000F00001E00003C0000F80003EEA
:1055700000007C0001F00003C0000F80001FFFFC52
:105580001FFFFC0000000000000000000000000001
:10559000000000000000000000000000000000000B
:1055A00000000000000000000000000000000000FB
:1055B0000FFF800FFFE00001E00000F00000F000AE
:1055C00001E00003C001FF0001FFC00003F0000084
:1055D000780000780000780000780001F00FFFC02C
:1055E0000FFF0000000000000000000000000000AD
:1055F00000000000000000000000000000000000AB
:10560000000000000000000000000000000000009A
:10561000000FC0001FC0003FC0007BC000F3C001EE
:10562000E3C003C3C00783C00F03C01C03C038031B
:10563000C07FFFFE7FFFFE0003C00003C00003C069
:105640000003C00000000000000000000000000097
:10565000000000000000000000000000000000004A
:10566000000000000000000000000000000000003A
:105670000FFFE00FFFE00F00000F00000F00000F12
:1056800000000F00000FFF800FFFE00000F000009F
:10569000780000780000780000F00003E00FFFC001
:1056A0000FFE0000000000000000000000000000ED
:1056B00000000000000000000000000000000000EA
:1056C00000000000000000000000000000000000DA
:1056D000003FF001FFF003E0000780000F00001E14
:1056E00000001E1F001FFFE01FC1F81E00781E00F3
:1056F0003C1E003C1E003C0F00780F80F807FFE0C6
:1057000001FF800000000000000000000000000019
:105710000000000000000000000000000000000089
:105720000000000000000000000000000000000079
:105730001FFFFC1FFFFC0000780000F00000E000ED
:1057400001E00003C0000780000F00000F00001EF2
:1057500000003C0000780000F00001F00001E000D3
:1057600003C0000000000000000000000000000076
:105770000000000000000000000000000000000029
:105780000000000000000000000000000000000019
:1057900003FFE00FE3F00F00781E00781E00780F83
:1057A00000F007E3E001FF8001FF8007E7E00F0062
:1057B000F81E00781E003C1E007C1F00F80FFFF052
:1057C00003FFC00000000000000000000000000017
:1057D00000000000000000000000000000000000C9
:1057E00000000000000000000000000000000000B9
:1057F00003FF800FC7E01E00F01E00783C00783CDD
:1058000000783C00381E00780FEFF807FFB8000062
:10581000780000780000F00001E0000FC00FFF00EA
:105820000FF0000000000000000000000000000079
:105830000000000000000000000000000000000068
:105840000000000000000000000000000000000058
:10585000000000000000000000000000007E0000CA
:105860007E00007E00001800000000000000000024
:1058700000000000000000003C00007E00007E00F0
:10588000003E0000000000000000000000000000DA
:105890000000000000000000000000000000000008
:1058A00000000000000000000000000000000000F8
:1058B000000000000000000000000000007E00006A
:1058C0007E00007E000018000000000000000000C4
:1058D00000000000000000003E00007E00007F008D
:1058E000001F00001E00001E0000FC0007F0000466
:1058F00000000000000000000000000000000000A8
:105900000000000000000000000000000000000097
:105910000000000000000000400001E00007C0009F
:105920001F00007E0001F80003E0000F80000F80E0
:105930000003E00000F800003E00000F800003E0DC
:105940000000E00000000000000000000000000077
:105950000000000000000000000000000000000047
:105960000000000000000000000000000000000037
:105970000000000000000000000000000000000027
:1059800000000000001FFFF8000000000000000001
:10599000001FFFF81FFFF8000000000000000000DB
:1059A00000000000000000000000000000000000F7
:1059B00000000000000000000000000000000000E7
:1059C00000000000000000000000000000000000D7
:1059D00000000000000000000007800003E000005D
:1059E000F800003E00000F800003E00000F8000116
:1059F000F00007C0001F00007C0001F00007C0009D
:105A00000300000000000000000000000000000093
:105A10000000000000000000000000000000000086
:105A20000000000000000000000001C00001FE00B6
:105A3000007F800007C00001E00000F00000F000DF
:105A400001F00003E0007FC0007E000070000070E5
:105A50000000700000000000000000F80000F800E6
:105A600000F800000000000000000000000000003E
:105A70000000000000000000000000000000000026
:105A800000000000000000000000001F8000FFF088
:105A900003C07807801C0E000E1C000E3C000F385F
:105AA0003FC778FFC770E3C771C3C7F3C387E3C3BA
:105AB00087E3878EE3878EE3CF8EE3FFFC71F9F0F7
:105AC0007000007000003800003C00000F01C007AB
:105AD000FFC0000000000000000000000000000007
